:020000040000FA
:1040000000F000202942000009490000D5400000CE
:1040100009490000094900000949000000000000AA
:10402000000000000000000000000000EF40000061
:104030004B4200000000000031410000194B00001D
:104040001DDD010055DD01001DDF010051420000B2
:104050002DDF01003DDF01004DDF01005142000076
:10406000514200005DDF010051420000514200005A
:1040700051420000514200006DDF01007DDF010070
:104080008DDF01009DDF0100ADDF0100BDDF01001C
:1040900051420000514200005142000051420000D4
:1040A0005142000051420000D1DF010051420000A6
:1040B0000100092400600200DFF80CD000F044FB8E
:1040C00000480047A1D0010000F0002030B5804733
:1040D00030BD00BF1EF0040F0CBFEFF30880EFF3FC
:1040E000098081694EF67122C0F201021047224B0D
:1040F00019680868B0E8F00F80F30988BFF36F8F84
:104100004FF0000080F311884EF00D0E704700BF95
:104110000000000005480068006880F3088862B667
:1041200061B6BFF34F8FBFF36F8F00DF1000002029
:10413000EFF30980BFF36F8F0F4B1A6820E9F00F80
:10414000106008B54FF0200080F31188BFF34F8F47
:10415000BFF36F8F1FF09AF84FF0000080F31188C3
:10416000BDE8084019680868B0E8F00F80F30988D6
:10417000BFF36F8F704700BF44000020EFF305804E
:10418000704700002DE9FF5FEFF31080EFF311811E
:10419000EFF31282EFF313830FB447F25820C2F209
:1041A00000001A490160EFF30881EFF30982EFF391
:1041B0001483EFF3038441608260C3600461144898
:1041C000016841F00101016044F6206000BF401E1B
:1041D000FCD1104841688268C368046981F308888B
:1041E00082F3098883F3148884F30388BFF34F8F25
:1041F000BFF36F8F0FBC80F3108881F3118882F3B7
:10420000128883F31388BDE8FF5F7047D341000035
:10421000040309405872002040BA704740BA704702
:10422000C0BA7047C0BA70470A48016811F0010F60
:104230001CBF21F00101016002D00748006800475F
:1042400006480047FEE7FEE7FEE7FEE7FEE7FEE77B
:10425000FEE700006401044058720020B9400000ED
:104260002DE9F05F0546002092469B4688460646AB
:10427000814640241BE0284641464746224600F03E
:104280009EF853465A46C01A914110D3114618461B
:10429000224600F085F82D1A67EB01084F462246AA
:1042A0000120002100F07CF817EB00094E41201E90
:1042B000A4F10104DFDC484631462A464346BDE806
:1042C000F09F00000649074A0868504343F239024C
:1042D00010440860400870470149086070470000BA
:1042E000500400206D4EC64110B5431A934209D2C6
:1042F0008318881803E010F8011D03F8011D521EF1
:10430000F9D210BD40EA01039B0703D009E008C9B8
:10431000121F08C0042AFAD203E011F8013B00F88A
:10432000013B521EF9D210BDD2B201E000F8012BC0
:10433000491EFBD270470022F6E710B513460A4625
:1043400004461946FFF7F0FF204610BD421C10F846
:10435000011B0029FBD1801A704730B504460020AC
:10436000034600E05B1C934203D2E05CCD5C401B43
:10437000F8D030BD30B50B46014600202022012484
:1043800009E021FA02F59D4205D303FA02F5491B23
:1043900004FA02F52844151EA2F10102F1DC30BD39
:1043A000202A04DB203A00FA02F1002070479140F5
:1043B000C2F1200320FA03F3194390407047202AEA
:1043C00004DB203A21FA02F00021704721FA02F3BF
:1043D000D040C2F1200291400843194670472DE9B0
:1043E000FE4F804681EA0300C00F0C46009021F08A
:1043F000004123F00045B8EB0200A94105D2404638
:10440000214690461C460B46024623F000401043CE
:1044100004D14046214603B0BDE8F08F270DC7F315
:104420000A00C3F30A510290401A0190402866DA4C
:10443000C3F3130040F4801B0098924620B1002380
:10444000D2EB030A63EB0B0B01985946C0F1400213
:104450005046FFF7A5FF06460D4650465946019ABD
:1044600000F084F910EB08006141002487EA115242
:1044700084EAE7731A433BD0009A3AB3019A012ABF
:104480004FEA075210DC001B61EB02014FF00042C3
:1044900002EA0752CDE90042001C41F58011324684
:1044A0002B4600F082F9B6E7001B61EB0201001C0D
:1044B00041F5801300185B412018A2F5001747EB67
:1044C000030140EAD570B6196D4111E06D084FEA5D
:1044D000360645EAC0754FEA0752001B61EB020140
:1044E000001C41F5801149084FEA30000019514184
:1044F00032462B4603B0BDE8F04F00F049B90098B2
:10450000012240000023D0EB020263EBE07300982D
:1045100021464FEAE074B8EB000061EB0401E9E7E3
:1045200083F000435BE781F0004158E72DE9FE4F3F
:1045300081EA030404F0004421F0004100944FF0AC
:10454000000B23F0004350EA010402D052EA0304B6
:1045500004D10020014603B0BDE8F08FC3F30A5434
:10456000C1F30A552C44A4F2F3340194A0FB025485
:10457000C1F3130141F48011C3F3130343F4801317
:1045800001FB024400FB034E840A970A44EA81546B
:1045900047EA8357A4FB076802958D0A05FB078548
:1045A0004FEA932C04FB0C542705029D4FEA065852
:1045B00047EA1637B5EB08056EEB070C870E920E2F
:1045C00047EA811742EA8312A7FB0201B6EB0B010F
:1045D00064EB00042B0D43EA0C335E1844EB1C50D3
:1045E000DA465146E7FB0201C5F313044FEA0B33E9
:1045F00043EA14534FEA0432019C43EA0603A4F150
:104600000C040294009CCDE900B400F0CEF8A2E7BF
:104610002DE9F04D81EA030404F0004B21F0004540
:1046200014464FF0000A23F0004150EA050220D062
:1046300054EA01021DD0C5F30A570246C5F313031D
:10464000C1F31300C1F30A5640F4801543F48013FC
:10465000A7EB0608101BD64608F2FD3873EB0500E1
:1046600002D308F1010801E092185B41B8F1000F94
:1046700003DA00200146BDE8F08D00204FF48011E0
:10468000064684460EE0171B73EB050705D3121B85
:1046900063EB050306434CEA010C49084FEA30007E
:1046A00092185B4150EA0107EDD152EA030012D0A3
:1046B00082EA040083EA0501084303D100224FF097
:1046C000004308E0101BAB4102D20122002302E0AC
:1046D0006FF0010253101AEB06004CEB085110EB7F
:1046E0000A0041EB0B01BDE8F04D00F051B8C1F3F9
:1046F0000A52C1F3130140F2FF3341F480119A4290
:1047000002DA00200146704740F233439A42A2F297
:10471000334202DC5242FFF752BEFFF741BE0000B7
:1047200030B5002904DB4FF00044404264EB010146
:10473000002B04DB4FF00044524264EB0303994228
:1047400008BF904230BD0000064C074D06E0E0680F
:1047500040F0010394E8070098471034AC42F6D3C8
:10476000FFF7AEFCDC5D0200FC5D0200202A06DBE8
:10477000CB17203A41FA02F043EAE07306E041FA2F
:1047800002F3D040C2F1200291400843194670471D
:1047900010B5002B08DA401C41F1000192185B4172
:1047A0001A4301D120F0010010BD2DE9F04D9246D1
:1047B0009B4611B1B1FA81F202E0B0FA80F22032E8
:1047C0009046FFF7EDFD04460F4640EA0A0041EA35
:1047D0000B0153465A46084303D120463946BDE8EB
:1047E000F08D114653EA010015D0C8F14002504641
:1047F000FFF7E5FD05460E46504659464246FFF78F
:10480000CFFD084301D0012000E00020054346EA27
:10481000E0762C4337430A984FEA4453A0EB080054
:104820004FEAD4240A304FF0000244EA47544FEADA
:10483000D72502D500200146D1E7010510196941AD
:10484000DDE9084500196941BDE8F04DA0E770B504
:1048500001EB020410F8015B15F0070301D110F819
:10486000013B2A1106D110F8012B03E010F8016B6F
:1048700001F8016B5B1EF9D12B0705D40023521EF2
:104880000FD401F8013BFAE710F8013B02F10202F4
:10489000A1EB030303E013F8015B01F8015B521E77
:1048A000F9D5A142D6D3002070BD000070B51349E0
:1048B000D1E9000105F0BEFB002001F0C7FD104C5E
:1048C0004FF0FF360F4D11E02078000604D500228E
:1048D000114604201DF038FE01F0D6FD20780006B8
:1048E00004D50022114605201DF02EFE3146286811
:1048F0001FF00EFA0028E7D170BD000098450200B5
:104900003C0000200C000020044800680122C0F395
:104910000801891E092006F0C3BB000004ED00E079
:1049200003480068C00501D11EF0FCB870470000C4
:1049300004ED00E003480068C00501D11EF014B981
:104940007047000004ED00E010B5C368D9B28029BB
:104950000FD98468E06800B101204B2213A100F058
:1049600091FEE16819B12069BDE81040084772B6B0
:10497000FEE70446008A616982B2D8B2124B1B6816
:10498000984705F053FF00280FD1E068022806D0B1
:1049900004280AD1A069BDE8104005F041BFA08BF2
:1049A000A169BDE8104005F039BF10BD4863695FDB
:1049B000696E7465726E616C5F7472616E73706F34
:1049C00072742E6300000000B80100201FB541681A
:1049D0000A2914D007DC09B1052923D104B0BDE8A8
:1049E0001040FFF7B1BF0B291DD00C291AD1018A45
:1049F000C268406904B089B2BDE8104010470E4952
:104A000091E81C00C968CDE90023CDE90241C168E5
:104A1000019141690291008AADF80C0010216846AD
:104A200005F042FD1FBD018A8AB24169C06804B029
:104A3000BDE8104007F0DABB544C0200074A131DD2
:104A40005980116860F307011160106840F400702C
:104A5000106010688005FCD470470000080409400D
:104A600000F01F020121914040094FF0E02202EBCB
:104A70008000C0F88012704700F01F0201219140B1
:104A800040094FF0E02202EB8000C0F800117047AF
:104A90004907090E002803DA00F00F00024A00E07F
:104AA000024A81547047000014ED00E000E400E089
:104AB000024A1140014302480160704780FFFF1F16
:104AC00008ED00E000B589B01AF0BCFB81680391E5
:104AD0000021CDE9011004480B464A1E69460068D2
:104AE0001EF09AFD09B000BD28000020014800F02A
:104AF00003B8000068010440014608680A68824261
:104B0000FBD10A688242F8D170470000014948721F
:104B1000704700004C01002010B5202080F3118860
:104B2000BFF34F8FBFF36F8F1FF08AFA18B104499C
:104B30004FF080500860002080F3118810BD000005
:104B400004ED00E00FB4054B10B503A9044A029828
:104B500000F0EAF810BC5DF814FB0000C57200001C
:104B6000540400200FB4084B10B504A902AA0398FE
:104B700000F0DAF8044602A9002000F078FC204694
:104B800010BC5DF814FB00006F540000014B024A9A
:104B900000F0CAB8C5720000540400207047704786
:104BA00070477047704770477047704702E008C809
:104BB000121F08C1002AFAD170477047002001E097
:104BC00001C1121F002AFBD1704700002DE9FF5FD1
:104BD000DDE90220010DDDF838B0024310D10F9855
:104BE00001244CA2012808D0002100980F9BC0E9A5
:104BF0000021C0E90243BDE8FF9F6FEA0B01F4E723
:104C0000A1F2FF3144F6105041430D140F980128D2
:104C10000ED0A5EB0B00401C4FF000043E4EDFF819
:104C2000FC90B0F1000AA04605DACAF1000717E0CF
:104C3000CBF10000F0E7074612E0F80707D0224664
:104C4000334640464946FFF771FC80468946224676
:104C5000334610461946FFF769FC04460E467F109E
:104C6000002FEAD1DDE90201BAF1000F42464B46BE
:104C700002DAFFF75BFC01E0FFF7CAFC04460E46D0
:104C80000022274BFFF74CFD03D84FF0FF300146C1
:104C900007E00022234B20463146FFF7A0FBFFF739
:104CA00026FD102409E0002C0ADB0A220023FFF76E
:104CB000D7FA019B30321A55641E50EA0102F2D134
:104CC000641C019AC4F1110314440F9A012A09D0FB
:104CD0000122084301D15B450FDD4FF0000205F1D1
:104CE00001050DE0084303D1A3EB0B056D1E09E0A0
:104CF00000204FF0110B0F9088E701DA00226D1EA3
:104D0000002A83D000980F99C0E90231C0E900451C
:104D100071E7000030000000000024400000F03F78
:104D20000000F0430000E03F2DE9FF4F95B09B46A7
:104D300089460646002512E2252878D10024761CF3
:104D4000F94A2746012105943378203B01FA03F004
:104D5000104202D00443761CF6E730782A2811D09E
:104D60006FF02F033078A0F13002092A16D8059A87
:104D700044F0020402EB820203EB42021044761C70
:104D80000590EFE759F8042B0592002A03DA504208
:104D900044F40054059044F00204761C30782E2828
:104DA00016D116F8010F44F004042A280DD06FF034
:104DB0002F023078A0F13003092B09D807EB8703C5
:104DC00002EB4303C718761CF3E759F8047B761C03
:104DD00030786C280FD006DC4C2817D068280DD00E
:104DE0006A2814D104E0742810D07A280FD10DE07D
:104DF00044F400140AE044F4801401E044F4401444
:104E00007278824202D1761C04F58014761C3078C8
:104E100066280BD013DC582877D009DC002875D021
:104E20004528F6D04628F4D047281AD19FE118E04B
:104E3000632835D0642879D0652812D197E170288D
:104E400073D008DC6728F1D069286FD06E280DD0A8
:104E50006F2806D1B5E073282CD0752875D0782836
:104E600074D05A46179990476D1C76E1C4F30250EE
:104E7000022809D003280DD0D9F8001004280DD03D
:104E80000D6009F1040968E1D9F80010EA17C1E9D9
:104E90000052F6E7D9F800100D80F2E70D70F0E748
:104EA00019F8041B8DF8001000208DF80100EA4667
:104EB000012003E059F804AB4FF0FF3061074FF0D9
:104EC000000102D40DE008F101018846B9420FDA71
:104ED0008045F8DB1AF808100029F4D108E008F141
:104EE000010188468142FADB1AF808100029F6D140
:104EF00005985B46A0EB080721463846179A00F054
:104F00009EFA284400EB080507E04DE02BE10DE098
:104F10001AF8010B5A4617999047B8F10108F7D2D1
:104F20005B4621463846179A14E142E00A22009275
:104F3000C4F302524FF0000A022A08D059F804CBF9
:104F4000032A4FEAEC710AD00DE029E02AE009F1CA
:104F5000070121F00702F2E802C1914609E00FFAC9
:104F60008CFC4FEAEC71042A03D14FFA8CFC4FEA17
:104F7000EC71002907DA0A460021DCF1000C61EB34
:104F800002012D2202E0220504D52B228DF80420F7
:104F9000012203E0E20701D02022F7E7904653E028
:104FA0000A2102E010220DE010214FF0000A0091CA
:104FB0000BE010224FF0000A44F00404082700928E
:104FC00003E008224FF0000A0092C4F30252022AC2
:104FD00005D059F804CB0021032A08D009E009F1D3
:104FE000070121F00702F2E802C1914605E01FFA2D
:104FF0008CFC042A01D10CF0FF0C4FF000082207B2
:1050000022D5702827D0009B83F0100353EA0A03AF
:1050100009D15CEA010206D030228DF804208DF817
:10502000050002229046009B83F0080353EA0A031E
:105030000AD15CEA010201D1620705D530228DF860
:1050400004204FF001087F1E582809D037A0039094
:105050000EA8029013E040228DF804200122E1E71F
:1050600037A0F4E753466046009AFFF7F9F8844604
:105070000398825C0298A0F10100029002705CEA41
:105080000100EFD1029806A9A1EB000000F1200A6F
:10509000600702D524F4803400E00127574502DD83
:1050A000A7EB0A0000E0002000EB0A010090059841
:1050B0004144A0EB01000590E00306D45B46214685
:1050C000179A059800F0BBF90544002706E001A8EF
:1050D0005A46C05D179990476D1C7F1C4745F6DB0B
:1050E000E0030CD55B462146179A059800F0A7F916
:1050F000054404E030205A46179990476D1C0099EA
:10510000481E00900029F5DC08E0029802995A46F2
:105110000078491C0291179990476D1CBAF1000163
:10512000AAF1010AF1DC6BE10928010030313233C8
:1051300034353637383961626364656600000000D3
:1051400030313233343536373839414243444546BD
:105150000000000000F060F9054406F10106307817
:1051600000287FF4E9AD19B02846BDE8F08F62074A
:1051700000D4062709F1070222F0070CFCE80223FD
:10518000E14603F000485FEA080C02D00FF27C2CE5
:105190000DE05FEA045C02D50FF2742C07E05FEAD1
:1051A000C47C02D00FF26C2C01E0AFF2700C4FF017
:1051B000FF3823F00043CDF850C065280CD006DC42
:1051C000452809D046281DD047283ED13EE0662814
:1051D00018D0672839D139E00021112F01DB1120C7
:1051E00000E0781CCDE9000106A90EA8FFF7EEFC4F
:1051F000DDE90F010E9A03910021009207F1010AE7
:1052000004914EE04FF000400097CDE9011006A94F
:105210000EA8FFF7DBFCDDE90F0203920E9B11994C
:105220000022DDF80CA00093049219B907F10101E6
:1052300000EB010AB7EB0A0004D4C0F1FF3007F11C
:10524000010A0490AAEB0700019046E0012F00DA62
:1052500001270021112F01DD112000E03846CDE9A2
:10526000000106A90EA8FFF7B1FCDDE90F010E9AB7
:105270000391002104910092BA4621070CD40399AE
:10528000514500DA8A46BAF1010F05DD009AAAF10C
:105290000101515C302908D0B84202DA10F1040F44
:1052A00006DA0121CDE9011017E0AAF10101E9E7D1
:1052B000002805DC049901440491AAEB000102E0F6
:1052C000411C514500DD8A460499A0EB010000F124
:1052D000010001904FF000400290200704D4019893
:1052E000504501DBCDF8048000208DF84F00029876
:1052F0000DF14F07B0F1004F25D02B200E900298F2
:105300004FF0020800280CDA404202902D200E9047
:1053100007E00A210298FFF72DF83031029007F8D4
:10532000011DB8F10001A8F10108F2DC0298002883
:10533000EFD1791E0E980870307800F0200040F010
:10534000450007F8020D12A8A0EB070000F10708BE
:105350001498007800B1012000EB0A01019801EBDC
:10536000E07105984144A0EB0100A0F10100059017
:10537000E00306D45B462146179A059800F05FF8D3
:1053800005441498007820B15A461799904705F1C2
:105390000105E00323D55B462146179A059800F0E6
:1053A0004EF805441BE00498002807DBDDE9030103
:1053B000884203DD0098405C179901E0179930207E
:1053C0005A46904704986D1C401C04900198401E5A
:1053D000019004D12E205A46179990476D1CBAF1BE
:1053E0000001AAF1010ADEDC05E017F8010B5A46BC
:1053F000179990476D1CB8F10001A8F10108F4DC81
:105400005B462146179A0598A4E600002D0000008F
:105410002B000000200000002DE9F041044600258B
:105420001E461746880405D406E039462020B047BA
:1054300005F10105641EF8D52846BDE8F0812DE987
:10544000F041044600251E469046C80301D530278A
:1054500000E02027880405D506E041463846B047DD
:1054600005F10105641EF8D52846BDE8F0810A68FB
:10547000531C0B60107070472DE9F05F06460088E2
:105480000B46C0F30B00834604F07CFF04007078E9
:1054900075884FEA10170AD005F10408984509D01D
:1054A0002A1DBDE8F05F19463548FFF77BBB59461A
:1054B00034A01EE001F080F907F00301002740F25C
:1054C000031A6063012903D002292CD03CA010E00C
:1054D000A08F60B14119B1F5827F0ED328485B4699
:1054E00052465C30FFF75EFBA787BDE8F09F594648
:1054F00043A0BDE8F05FFFF755BBA16B2A46084407
:105500000E30311DFEF7F0FEA08F284481B2A18736
:10551000E08F083081422FD3A06B0E3004F09EFF45
:10552000E787A78728E0A08F28B115485946B030F3
:10553000FFF738FBA787B788381D8146854205D31A
:105540001FFA88F1304604F089FF15E0FF2D07D9D6
:105550005B465246291DBDE8F05F3848FFF722BB85
:10556000A06B2A1D0E303146FEF7BEFEA4F83C802B
:10557000E787A16BA1F81090BDE8F05F05F09CBA39
:105580001C4902006863692E633A2061636C5F689E
:10559000616E646C65722063616C6C656420776910
:1055A0007468206E6F6E2D726567697374657265BD
:1055B000642068616E646C65202575210000000020
:1055C0006863692E633A2061636C5F68616E646C26
:1055D00065722063616C6C6564207769746820690A
:1055E0006E76616C6964207061636B657420626FB4
:1055F000756E6461727920666C6167732025750031
:1056000041434C20436F6E7420467261676D656E36
:105610007420627574206E6F2066697273742066E0
:105620007261676D656E7420666F722068616E646A
:105630006C6520307825303278000000204A020066
:1056400070B5054607480469241D04EBC50042688F
:10565000002A05D14160880019F074FD44F8350036
:1056600070BD00000000002010B505494FF6FF7323
:1056700002E084788C54C01C02889A42F9D110BD93
:1056800000000A4010B50B46002803D11146184609
:1056900007F002FE10BD70471CB506498C68002C4F
:1056A00007D0002100910191B0F806010B460322BA
:1056B000A0471CBDAC00002070B50D46002821D1CC
:1056C000082D1FD2104C4FF4947654F8250020B9C1
:1056D000304600F0A7FF44F82500040012D0314600
:1056E0002046FEF728FEA4F8065104F580712846EE
:1056F00002F015FE06F078FDA4F802014FF0FF302D
:10570000A4F8080170BD0000B06B0020F8B5164683
:10571000028A069FA2EB010294B2C288D2050AD582
:105720000A4A55683DB1009300890A46014633464E
:105730003846A847F8BD9C4200D91C46406922461D
:1057400001443046FEF7D0FD2046F8BDAC000020F5
:10575000042105F053BE042106F056BE024908603C
:105760000421024806F0C6BDB8000020CD5C000050
:10577000024948600421024806F0BCBDB800002080
:10578000CD5C0000042105F039BE042106F03CBECA
:1057900000B58BB0D0F82401009023E0684600F0FB
:1057A00031FABDF8081000291ED0BDF806200FA060
:1057B000FFF7F4F9BDF806008005039808D506A99F
:1057C00019F02AFE06A81DF053F8014611A001E0C9
:1057D000018811A0FFF7E2F9BDF8101010A0FFF743
:1057E000DDF900980028D9D10BB000BD48616E6486
:1057F0006C653A203078253034782C20666C6167EF
:10580000733A203078253034782C20757569643AE5
:1058100020000000257300002530347800000000CF
:105820002C2076616C75655F6C656E3A2025752C51
:105830002076616C75653A2000000000064A30B49D
:105840001468002C06D00B46A4460246002130BC4A
:105850000420604730BC7047C00000207CB514466F
:10586000042819D120783E283FD016DC052853D0D3
:10587000082801D030280FD1B2F80350284600F094
:10588000CBF8040008D028461AF05DFC04F8FD0FA0
:1058900028461AF00FF960707CBDD72859D0D82857
:1058A00048D0DA28F8D1608800F0B6F80500F3D0C7
:1058B000B5F8060104F066FD0600EDD02079317AD6
:1058C0008842E9D16946601D19F0B8FD06223146CB
:1058D0006846FEF742FD0028DED1E07A85F8FF0039
:1058E000B5F80601FFF751FF7CBDA078012801D073
:1058F0000A28F9D1D41C9188D078FFF7DDFEB4F8DE
:10590000010000F089F80500EED0B4F801001BF0AA
:1059100083F8A5F808017CBDB2F80340204600F0EA
:105920007BF80028F7D000F07FFE1049002041F8F6
:1059300024007CBD608800F06FF80500F9D0B4F851
:105940000B0001B2A5F8081109A0FFF728F92846B5
:1059500008E0508800F060F80028EAD04FF0FF31EE
:10596000A0F8081100F092FA7CBD0000B06B002096
:10597000534D5F4556454E545F4944454E54495436
:10598000595F5245534F4C56494E475F5355434319
:105990004545444544206964202575003EB50C46C4
:1059A0008DF8080000208DF8092000900190022356
:1059B00002AA0421204606F01FFF3EBD7FB50DF16F
:1059C000200C1446BCE864008DF80800ADF80930DE
:1059D000ADF80B20ADF80D10CDE90056072302AA53
:1059E0000421204606F008FF7FBD70B515000C4667
:1059F00003D0D0F82401206008E0002070BD2046CC
:105A000000F000F92089A84203D020680028F6D1D0
:105A100070BD012070BD0000082803D2024951F872
:105A20002000704700207047B06B00202DE9FF4137
:105A3000164691F800C00024B0F800214F1D1D4605
:105A4000BCF10E0F72D00CDCACF1020EBEF10B0FEC
:105A50001BD2DFE80EF0221A341A3C1A4C1A5C1AD8
:105A60006200BCF1180F70D009DCBCF1100F66D0D9
:105A7000BCF1120F76D0BCF1160F06D177E0BCF165
:105A8000520F7ED0BCF1D20F7BD061463FA0FFF712
:105A900085F804B02046BDE8F081B1F80110B0F8F7
:105AA00002218A4202D9A0F8001101E0A0F80021E9
:105AB00003242C70B0F80001A5F80100E9E7491CA7
:105AC0004B8800930B88294603F0C2F90DE0CB1DEB
:105AD000491CF61FB4B28F884E88CDE90243CDE948
:105AE00000670B88294603F01FF90446D1E70C46EE
:105AF0002946072E01D8022300E01023641C658884
:105B0000CDE900530297238803F082FBEDE7B1F85B
:105B10000130294603F096FCE7E7491C4B880093C7
:105B20000B88294603F06AFADFE7FFE7491C761E77
:105B30000091C6F34F03294603F012FCD5E70C464B
:105B40001946072E03D8022302E015E00AE01023CD
:105B5000641C6588CDE900530297238803F0BEFAE0
:105B6000C3E70EE00092324603F0F8FCBDE7009276
:105B7000324603F0E5F9B8E70092324603F0A2F8A6
:105B8000B3E70092324603F0B9FC82E7556E6861D4
:105B90006E646C65642041545420436F6D6D616E7A
:105BA000643A20253032582C20444154413A200098
:105BB0001CB50B4B1C68002C10D0B6238DF80030A0
:105BC00005238DF801308DF80200ADF80310ADF813
:105BD0000520072300216A460420A0471CBD0000C1
:105BE000C000002010B580B2FFF716FF002808D0D3
:105BF000B0F80A21B0F80611BDE810409120FFF777
:105C0000D7BF10BD10B501680A88828072B14B8879
:105C1000C3808C88048101F10604C4609B050CD507
:105C2000A2F11603038201F116030BE00021C180EB
:105C30000181C1600182416106E0A2F10803038293
:105C400001F1080311444361016010BD70B50446C1
:105C500000890D4600281BD0022A08D0E088800564
:105C60000BD51022E068FEF778FB80B111E00988BF
:105C70002046BDE8704000F00EB8084605F06EFA08
:105C8000002805D0E168A8890988884201D101204F
:105C900070BD002070BD70B5044600890D46002817
:105CA00010D0E0888005E06808D505F057FA002894
:105CB00008D0E0688089A84203D004E000888842C8
:105CC00001D1012070BD002070BD00002DE9F04120
:105CD000194C06461F4615468846042809D0082E4A
:105CE00028D12878C00720D0D4F800C01FE0304663
:105CF000E047287878281DD1D4F804C0BCF1000F03
:105D000008D03B462A4641463046E04704F032FA86
:105D100000280FD02468002C0CD03B462A46414670
:105D20003046A446BDE8F0416047D4F804C0BCF159
:105D3000000FDCD1BDE8F081B80000202DE9F04172
:105D40000F461546044601461E46127828A0FEF767
:105D500026FF042C0CD0082C48D13846FFF75CFEF7
:105D6000040043D029781E2909D0522918D01EE0FA
:105D7000287878283AD1BDE8F04100F00FB9B4F89E
:105D80000A01A0B104F5867000F018FD04F58374D3
:105D90000020A288A0802188BDE8F041FFF708BF5D
:105DA00032462946BDE8F0410023FFF73FBEFB2EF7
:105DB00006D93246BDE8F041FB231A48FEF7EFBE94
:105DC00022782AB1BDE8F04116485030FEF7E7BE10
:105DD00001202070A4F8046132462946A01CFEF779
:105DE00083FA2046BDE8F04100F050B8BDE8F081EC
:105DF0006174745F7061636B65745F68616E646C1D
:105E000065723A2074797065203078253032782CAC
:105E1000207061636B65745B305D203078253032B3
:105E2000780000007447020010B5B0F80001029C31
:105E3000C01E80B21970A3F80120844200D8204609
:105E400010BD1FB514468DF80800069AADF809304C
:105E5000ADF80B20ADF80D10002000900190072345
:105E600002AA0421204606F0C7FC1FBD3EB50C4621
:105E70008DF80800ADF80920002000900190032360
:105E800002AA0421204606F0B7FC3EBD2DE9FF41E1
:105E90000446017824A0FEF782FE207801282DD147
:105EA000A078D22808D003202070B4F8060104B0EE
:105EB000BDE8F041FFF769BC19F0ECFF0027E0B145
:105EC000B4F804010F2818D3B4F806011AF0DCFB6B
:105ED000002813D1B4F9080106F030FE05000CD0FB
:105EE000B4F80411A4F10A000E58696C324611A0EE
:105EF000FEF755FE686CB04202D92770BDE8FF81FD
:105F000002202070B4F803201749601DCDE9000677
:105F1000CDE90214B4F80401A1780F3883B205F179
:105F2000340019F0C1FFE9E76174745F72756E3A6D
:105F300020256400415454205369676E65642057DE
:105F4000726974652C20444220636F756E746572AB
:105F50002025752C207061636B657420636F756EEE
:105F600074657220257500002D620000FFF70ABCE1
:105F70000EB50B21CDE900238DF80810012302AAEC
:105F8000042106F039FC0EBD00B5FFF745FD10B148
:105F9000B0F8000100BD172000BD00002DE9F84356
:105FA0000025144F144EA84657F82540E4B1207838
:105FB00003280BD1204600F0A7F838B1607898B1DB
:105FC000B4F80601BDE8F843FFF7DFBB607858B1CD
:105FD0000AA084F8018000680090346824B102238C
:105FE00000216A460420A0476D1C082DDCD3BDE8C3
:105FF000F8830000B06B0020C0000020B700000054
:106000002DE9FE431F4616460D468046FFF704FD68
:10601000040005D0B4F80A0120B19020BDE8FE8349
:106020005920FBE74046FFF7ADFB88B102AB2A469B
:106030001D2120460097FFF7F7FECDE900600323FE
:1060400002AA0421404606F0D7FB060002D014E065
:106050005720E3E7A4F80A5104F586704246084940
:10606000044600F0E1FB47F2305240F28241204604
:1060700000F0C2FB204600F091FB3046CEE7000066
:10608000E55B000070B505460B480A4C0E464460BF
:1060900004F054F808480830446019F0A1FA0748A1
:1060A000FFF766FB284600F0B5F83046BDE87040C3
:1060B00000F0B6B85D580000C40000203D5D00004F
:1060C0002DE9FE431E4615460F468046FFF7A4FC09
:1060D000040014D04046FFF755FB90B102AB3A469E
:1060E0001B2120460096FFF79FFECDE900500323B9
:1060F00002AA0421404606F07FFBBDE8FE8359203A
:10610000FBE75720F9E700002DE9FC412F4E00275F
:1061100007700446B0F804213346811CFFF786FC63
:106120000546A0F57F40FF3823D0042D0FD33078EB
:1061300001280CD13079082809D194F8FE0030B13B
:10614000B4F8060119F0DDFC78B1012811D085B151
:1061500000970197B4F806012B463246042106F059
:106160004BFB3078032807D02DE0B4F806011AF075
:1061700043FF0020BDE8FC81154AB4F80611B4F8CD
:106180000001156875B1B5228DF8002004228DF844
:106190000120ADF80210ADF80400062300216A4684
:1061A0000420A847B4F8060100F084F809480078F4
:1061B000C00708D0B4F800010022001D81B2B4F875
:1061C000060101F0DDFA0120D4E700003C6D00205B
:1061D000C0000020D4000020014908607047000082
:1061E000C000002010B50246FFF716FC002806D0BC
:1061F00001214170BDE810401046FFF7C6BA10BD3E
:1062000010B50C46FFF708FC002801D0C0F8244167
:1062100010BD00000149486070470000AC0000203C
:106220000149886070470000AC0000207CB504463E
:1062300000780A4602280ED16946104619F0FBF88C
:10624000B4F80411A01F014408226846FEF785F83F
:1062500010B1002020707CBDB4F80411A4F10A0034
:106260000E58B4F9080106F069FC050001D00120C0
:1062700000E00020ED2207A1FFF704FA45B1761CEB
:106280006E6403202070B4F80601FFF77EFA7CBD2F
:1062900072B6FEE76174745F7365727665722E6321
:1062A000000000000A6882654968C16535210170F7
:1062B00002F0B8B970B5054602F0F4FC04000BD04A
:1062C0002846FFF7A9FB002806D0E28AB0F80011A3
:1062D0008A4202D9A0F8002170BDE18270BD0000A1
:1062E000F8B50446C0880E46C0050BD5064845687B
:1062F000002D07D000200090034602462189304639
:10630000A8472082F8BD0000AC0000207CB50E46F6
:10631000C98804460D0B00D06D1C14F8FD2F607861
:10632000CDE90002A378FD3C2A461048FEF736FC72
:10633000F088410502D594F8FE1079B1000502D528
:1063400094F8FF0060B1002D02DD94F8FD0048B123
:1063500094F8FD00A84207DA0C207CBD05207CBD26
:1063600008207CBD0F207CBD00207CBD7046020053
:106370003EB50C468DF808000699ADF80920CDE928
:106380000013032302AA0421204606F035FA3EBD7D
:106390000622FDF7E2BF0A680260898881807047A3
:1063A00010B50C49002203463A24985C000900F01D
:1063B00033FB0870985C00F00F0000F02DFB487074
:1063C0008C70C91C521C062AEFDB002001F8010C5E
:1063D000004810BDF56B00200844008840BA7047A3
:1063E0004218405C5378528852BA63F31F4242EA23
:1063F00000607047130A4354491C89B242547047E5
:10640000130E4354491C89B2C2F307434354491C39
:1064100089B2C2F307234354491C89B242547047DE
:1064200010B50446FEF77CFA03480188A1430180B9
:10643000BDE81040FEF77EBAD803002010B503F087
:106440002EFABDE81040012000F010B810B5064942
:106450000A68C2F30312022AFAD1012100F008FCF3
:10646000BDE8104004F0D4BD0400044010B504465B
:10647000FEF756FA0348018821430180BDE8104029
:10648000FEF758BAD803002003480078C00701D1AE
:1064900017F060B970470000D803002008B500204D
:1064A000009008480068C1050748006803D06946A5
:1064B0001DF0C8F908BD00231A4619461DF0ACF8B6
:1064C00008BD000004ED00E00C00002010B50446FB
:1064D0000E480078C00718D0FEF722FA4CB103210D
:1064E0000B4816F08DFE03F0DCF90FF055FE0CF0B2
:1064F0003BF90120FFF794FF10F066FE032017F030
:106500005BFABDE81040FEF715BA10BDD8030020B5
:106510004E00030070B50D480088A0B910F068FD6A
:1065200040F2E2450446A8420DD30948406D50B9F7
:1065300017F020FB38B117F025FBA84203D3A04287
:1065400000D3204670BD002070BD0000D80300209D
:10655000000009400149086070470000D400002095
:106560000268134602E08A4204D01268002AFAD177
:106570000B600160704702E08A4205D01046026855
:10658000002AF9D10A6001607047006808B1002054
:1065900070470120704704E0884201D10120704714
:1065A00000680028F8D170470268816832B14068FD
:1065B0000068884200D1086808B9704709B1012015
:1065C0007047002070470022C0E9002109688160FF
:1065D0007047016851B141680A6881688A4203D1F5
:1065E00041600968816003E0826001E0012101608F
:1065F0008068704781680968816042681160002185
:10660000016070474FF0FF3351B107E002688A42E2
:1066100003D1096801600020704710460028F5D1B9
:106620001846704718F08EBD1CF0B8BAFFF7FCBFD3
:106630007820FFF7F7BF10B50446806B06F007FD22
:106640002046BDE81040FFF7EFBF70B59820FFF778
:10665000E9FF04000CD040F2111006F05DFD0500CA
:1066600008D098212046FDF766FE2046A56370BD40
:10667000002070BD2046FFF7D7FFF9E77047FFF70E
:10668000D3BF5420FFF7CEBFFFF7CEBF1420FFF7D4
:10669000C9BF2DE9F04106460020984617460C4632
:1066A0000546306005E02146304600F007F84444D6
:1066B0006D1CBD42F7DBBDE8F081000030B402681C
:1066C000134607E08B4204D1024630BC04A0FEF71B
:1066D00067BA1B68002BF5D10A60016030BC7047B7
:1066E0006274737461636B5F6D656D6F72795F70F7
:1066F0006F6F6C5F667265653A20626C6F636B20CA
:10670000257020667265656420747769636520660C
:106710006F7220706F6F6C2025700000016819B1D6
:106720000A6802600846704700207047FFF77CBF88
:106730000C20FFF777BF000000B589B00DF1080C01
:1067400001900E4800680592ACE80B000C48006808
:106750004FF00003C005029804D0002269461DF0E6
:1067600011F804E04FF0FF3269461CF055FF012894
:1067700002D0012009B000BD0020FBE72800002066
:1067800004ED00E013460A4601460A20FFF7D4BF95
:1067900013460A4601460C20FFF7CEBF38B5044623
:1067A0001DF040FC02464FF0FF3000900023012115
:1067B00060691DF095FE38BD0020704738B504466D
:1067C000406948B14FF0FF31002300911A4605217E
:1067D0001DF086FE00206061002038BD38B50446FB
:1067E0001DF020FC02464FF0FF30009000230221F4
:1067F00060691DF075FE38BD38B5044681609002B1
:106800004FF47A71B0FBF1F1044800902346002266
:1068100003A01DF0F9FD606138BD0000C54A00000D
:106820006800000001617047C0E90312704708B5B5
:106830004FF0FF310091002340691A4603211DF0FB
:106840004FFE08BD2DE9F0410746114815460E469A
:1068500004689846DA3438886288218800F024F980
:10686000388062882188308800F01EF93080E28804
:10687000A188288800F018F9288062892189B8F851
:10688000000000F011F9A8F80000BDE8F081000058
:10689000B448020070B50C00054601D0012000E0AC
:1068A00000206A2206A1FEF7EDFE284600F034F82B
:1068B00010B100206C602060286820602C6070BDE2
:1068C0006C6973745F62617369632E63000000001A
:1068D00070B50C00054601D0012000E000205322D5
:1068E00007A1FEF7CFFE284600F016F808B12C608D
:1068F00001E06868046000206C60206070BD0000EA
:106900006C6973745F62617369632E6300000000D9
:106910000021016041607047006808B100207047A5
:1069200001207047006808B10020704701207047BF
:10693000016819B10A68026012B103E00022FAE7A7
:10694000002242600846704770B5054600680C4654
:1069500000B10120C32209A1FEF794FE206800B116
:106960000120C42205A1FEF78DFE69682068086039
:106970006068686000202060606070BD6C6973743E
:106980005F62617369632E630000000070B50346A7
:1069900000200246012513F80240002105FA01F605
:1069A000344201D0401C80B2491CC9B20829F5D339
:1069B000521CD2B2052AEED370BD70B504460089D0
:1069C00042F6554290472521B0FBF1F201FB12013E
:1069D000CA0801F00705A25C0123AB401A4201D0AE
:1069E000084670BDE18841432046BDE87040C1F3D0
:1069F000074102F02FB930B50446106820601079C5
:106A00000D4600F01F0020712046FFF7BFFFE08019
:106A100085EA1540208130BD0A2801DA303003E0D4
:106A20000A38062802DA4130C0B270473F2070476A
:106A300070B50446C08E88B0002822D0258F94F807
:106A40003430A2268DF800601A268DF80160A689E0
:106A50000A46ADF80400ADF8082004F11C01ADF8B9
:106A60000260ADF80650ADF80A30102203A8FDF719
:106A70003BFCA1891C236A46A06800F051F9002064
:106A8000E08608B070BD000006481144006800F2BE
:106A9000FF30814203D90120186003207047002095
:106AA00070470000E400002019B1884201D2084676
:106AB0007047002AFCD09042FAD910467047000077
:106AC0000249CA6D82430243CA657047000009400B
:106AD00043688B4204D18068904201D10120704705
:106AE000002070473EB5144D0022202140202C6923
:106AF0001CF0F2FCA8620322002101201CF0ECFC37
:106B0000E8600E4A0E2061688DE8070000230CA1A2
:106B10000C48A2681DF03AFA084AE8625432022092
:106B2000E1688DE80700002307A1084822691DF0ED
:106B30002DFA28633EBD000000000020A4040020C0
:106B400063000000AD4800007000000085E6010011
:106B500010B508780C4648B10848007800070AD5F7
:106B60000022BDE81040022004F09ABA04F0D3FAE3
:106B700000222146F5E7002010BD000000000020A3
:106B800070B50646401E1D460C46082809D22078DE
:106B90002968884205D10622211D6868FDF7DDFBC2
:106BA00008B1002070BDC5E90264032070BD00007B
:106BB0000248417A491C4172704700004C01002094
:106BC00010B5044602F044FF00200FF0D1FA10F097
:106BD0001FF90FF015F908F0FFFD0CF06BF911F03B
:106BE00001FE15F0A5FC16F047F9002C03D0BDE816
:106BF000104010F0A6BE10BD70B50446B0F1A53F20
:106C000019D0B4F1C33F16D00123DA0205211A20AE
:106C100016F00EFD0546B4F1F23F09D0922206A10E
:106C20000020FEF72FFD2846BDE8704016F072BE2A
:106C300007202870F7E770BD6474626C652E6300EE
:106C400070B50A4C4FF42020074DE0641BF07CF92E
:106C5000800602D54FF4803001E04FF40040284414
:106C6000C0F31300A06470BD00000A40000009409A
:106C7000F8B505461B480E46002101800FF054FB75
:106C80001BF080F916F07CFC68460FF08FFB044681
:106C9000009842F2ED0140F61C67884201D30120C2
:106CA00000E00020852210A1FEF7ECFC3A462146C8
:106CB000002016F0D1FC009804F61C61A0F61C60C0
:106CC00082B2012016F0C8FC1BF0C2F83046FFF774
:106CD00077FF002D04D02846BDE8F840FFF78CBFB1
:106CE000F8BD0000D8030020647469702E630000B2
:106CF00009490120096809B1002070470749CA699C
:106D0000002AF9D1044A283212688968491E8A4249
:106D1000F3D1022070470000480900204400002001
:106D200030B4040003D0A44630BC0420604730BC1B
:106D30007047FEB51E4617460C46054601F0B2FFE9
:106D4000002816D0011D6846FFF73DFC0CE06846A0
:106D5000FFF73FFC0189A14206D1D0F804C03346B9
:106D60003A4629460420E0476846FFF71DFC002804
:106D7000EDD1FEBD1CB5A0228DF8002003228DF8B8
:106D800001208289ADF802208DF804108189806885
:106D900005236A46FFF7C4FF1CBD30B587B0044623
:106DA000A3250A988DF8005018258DF80150A58963
:106DB000ADF80410ADF806200146ADF80250ADF86C
:106DC000083010220DF10A00FDF78EFAA1891A236E
:106DD0006A46A068FFF7A4FF07B030BD10B586B0C3
:106DE0000446A1208DF8000016208DF80100A0892E
:106DF000ADF80410ADF80200ADF8062010221946D7
:106E000002A8FDF771FAA18918236A46A068FFF766
:106E100087FF06B010BD00002DE9F043427804461C
:106E2000901C89B00E46814206D009B0921CBDE884
:106E3000F043E248FDF7B6BE2178E1A0FDF7B2FECF
:106E40002078DFF88C834FF00009122869D00CDC21
:106E50000E2811D004DC05286FD0082845D16DE03C
:106E60000F2827D0102840D18CE0132844D03E288A
:106E700074D0572839D181E1D8F80000A27845466E
:106E800090F86210D3A0FDF78DFE6179DAA0FDF7CE
:106E900089FE2968A07881F862002968B4F80300A7
:106EA000B1F89610884218D12868826CAAB1C16CDA
:106EB000601D11E0D8F80020E178404682F86210A9
:106EC000D8F80020A188B2F89620914205D1016837
:106ED0008A6C12B1C96C601C9047D8F80020A2F8E7
:106EE0009690D8F80010C1F84890D8F8000090F8B3
:106EF000780001287BD04DE10325002719E0635B72
:106F0000AD1C625BAD1C184603F03CFA38B190F83A
:106F1000401091420AD3891A80F8401008E01946BF
:106F200000E034E0B9A0FDF73DFE01E080F84090BC
:106F30007F1CA078B842E2DCD7E71AE0B4F803502F
:106F4000284603F01FFA0028CFD0A17851B9617903
:106F50000029816903D041F4004102E023E021F4DB
:106F60000041816100F0C8FB0146284603F0EEFABB
:106F7000BBE7B4F8030003F005FA0028B5D00721F9
:106F80004174B2E703F01CFD03F02EFDADE7A078DD
:106F90000028AAD1B4F8030003F0F4F90028A4D023
:106FA000617A0174A1E7A07806287AD011DC012863
:106FB0001ED0042899D1E078002873D1A08803F06E
:106FC000E1F900286ED08830A1794170012101706B
:106FD0008BE70A280CD0122887D12079082884D280
:106FE000E178002971D097A0FDF7DCFD7DE7CDE0C9
:106FF000E0780028A0D1A788082F27D2D8F8000071
:1070000000EB8705686910B9FFF71FFB6861050091
:107010001CD0EF800220C5F81890A8742A46924927
:1070200005F11C00FFF700FCFFF7C6FB6863E07981
:107030002872294604F1080018F000FA0520687447
:10704000A0792874A0780A2804D012E0A08800F063
:1070500081F94AE7D4F80E10C5F88A10618AA5F8BC
:107060008E106169C5F89010218B05F18000A5F89C
:107070009410E089A5F85200287C60B9D8F8001077
:1070800091F86010E973D8F8000005F1090190F853
:10709000600000F011FA2846FFF782F90246E988FD
:1070A00001E013E06FE071A0FDF77CFD03F024FA2E
:1070B000D8F8000090F86E00C00689D5E98840F63F
:1070C000B832724803F094FA0FE72CE034F8037FEB
:1070D000384603F057F905006088ADF81400A08821
:1070E000ADF81000E088ADF818002089A4F1030481
:1070F000ADF81C00ADD007AB06AA04A905A8FFF7A0
:10710000A1FB5435BDF818006B882A88BDF81C1007
:107110008DE80F00BDF81030BDF8142039465C48EA
:1071200003F066FAE1E6B4F80520104603F02AF908
:107130000546217957A0FDF735FD2079D8F80020C4
:10714000C0EBC001114491F8A110E97369B1217934
:10715000D8F80000C1EBC101014401F18000D1F871
:10716000A21045F8091FC08C06E0D8F80000416D58
:1071700045F8091FB0F85800A880B6E6608803F00B
:1071800001F90028A0D109B0BDE8F083B1B22046D2
:1071900003F0D0FAB1B2204603F086F92078052832
:1071A00006D1B4F8030003F0EDF808B103F0BAFD1E
:1071B00009B0BDE8F04303F07FBC00008C4A020038
:1071C0004843493A4556454E543A253032780000F6
:1071D000B4480200434D445F434F4D504C45544525
:1071E00020636D6473206F6C64202575202D206EE4
:1071F0006577202575000000636D645F636F6D70B7
:107200002073746174757320257500006863695F6D
:107210006E756D6265725F636F6D706C65746564C9
:107220005F7061636B6574206C6973747320756E35
:107230007573656420636F6E2068616E646C652091
:107240002575000061647620736574207465726D25
:10725000696E61742064756520746F206361757355
:107260006520307825780A009DA300004E657720C0
:10727000636F6E6E656374696F6E3A2068616E64E9
:107280006C652025752C202573000000044B02003E
:107290008C4B02006164762068616E646C657220BC
:1072A0003078257820636F6E6E6563746564207432
:1072B0006F20636F6E2068616E646C652030782586
:1072C000780A000010B5044603F01EFF204610BDEA
:1072D00013460A460146014803F08AB9344C0200BD
:1072E0000246014803F084B9344B020030B50C4625
:1072F000054689B01946104600F026FA00280CD140
:107300006946284618F088F804A9204618F084F841
:1073100004AA6946024803F06BF909B030BD0000C9
:10732000644B0200014803F063B900002C4B0200DB
:10733000014803F05DB90000E44B0200014803F08E
:1073400057B90000444C0200014803F051B9000055
:10735000244B020010B5034603F014F840B1062197
:10736000417413221946054803F042F9002010BD6C
:107370000021184603F084F8F8E70000EC4A020008
:1073800038B54FF0FF30ADF80200ADF8000006252B
:107390000DE0684603F046F80446407C062806D017
:1073A000E1881322054803F023F900B965746846A3
:1073B00003F018F80028ECD138BD0000EC4A0200B8
:1073C0002DE9FF4FDFF8A8A085B00024DAF80020EF
:1073D000DDE912691268DFF894808B460A2000EB21
:1073E000061153692746B8F8000003AA984705001C
:1073F00001D001210FE0562009B0BDE8F08F00BF99
:1074000004EBC40219F81220521E01FA02F03843AC
:10741000641CC7B2E4B2B442F2D3DDE907018DE8DF
:1074200083005B46D8F804102846059A02F0A0FFB6
:10743000C7B200240DE000BF04EBC40109EB410119
:10744000891CE8191022FCF74FFF1037641CFFB2AB
:10745000E4B2B442F0D3DAF80010404681F860B0EC
:107460002946039A03F018FC0020C5E7144C0200DB
:10747000B448020010B500F067F9002804D1BDE857
:107480001040024803F0B4B810BD00006C4B02007D
:107490000248006890F8980070470000B448020065
:1074A0000449096851F8DA2F02604A684260896825
:1074B00081607047B4480200074A0028106804D071
:1074C00050F85A2F0A60808803E0426D0A60B0F8D5
:1074D0005800888070470000B44802000146014807
:1074E00003F086B8544B0200034909684A6D0260F4
:1074F000B1F8581081807047B448020010B50446B6
:10750000014604A0FDF74EFB022C01D9012010BD5D
:10751000002010BD6761705F6D69746D5F70726F80
:1075200074656374696F6E5F7265717569726564A5
:107530005F666F725F73656375726974795F6C659E
:1075400076656C20257500007FB50DF1200CBCE838
:1075500070008DE8780013460A460146024803F0A1
:1075600047F804B070BD00001C4C0200014803F055
:107570003FB80000244C02000146014803F038B82F
:107580002C4C02000448817A012903D10221817226
:1075900019F0DCBD704700004C010020074810B511
:1075A000426C40F282210648FFF726F90448FFF7B3
:1075B000F5F8BDE81040FFF7E5BF00004C010020E2
:1075C000886E002010B5002207490848FFF72CF903
:1075D000074840F28221426C0448FFF70DF9BDE8EC
:1075E00010400248FFF7DAB89D750000886E002051
:1075F0004C010020014802F0FBBF00001C4B0200C0
:10760000014802F0F5BF00004C4C02000146014861
:1076100002F0EEBF9C4B02000146014802F0E8BFB9
:107620005C4B02000146014802F0E2BFF44A02004E
:107630000146014802F0DCBF0C4B02000246014843
:1076400002F0D6BF3C4B02002DE9F0410E46074642
:1076500002F098FE050010D0384600F043F80446CA
:107660000246314608A0FDF79DFAB44207D32146F1
:107670003846BDE8F04102F069BF0121F8E7AE7479
:10768000BDE8F04103F018BA6761705F726571750B
:107690006573745F73656375726974795F6C657621
:1076A000656C2025752C2063757272656E74206C74
:1076B0006576656C202575000146014802F098BF8B
:1076C000DC4B020013460A460146014802F090BF17
:1076D0003C4C020013460A460146014802F088BFAE
:1076E000C048020010B502F04DFE18B1BDE81040D0
:1076F00000F002B8012010BD10B1008B000401D4CD
:10770000012070470220704702207047074BC0EBF2
:10771000C0021B681A440B6842F8A23F8B88938012
:107720000A460146024802F063BF0000B448020066
:10773000B44B020000B101200249096881F89800A9
:1077400070470000B4480200034A136818641068C8
:107750004164002070470000B448020001490968F4
:1077600008657047B448020004490268096841F896
:10777000DA2F42684A60806888607047B448020027
:107780000AB944F2902213460A460146014802F023
:107790002FBF0000944B020013460A4601460148E1
:1077A00002F026BFA44B020008B50B460092024629
:1077B0000021024800F074F808BD0000C44B02002C
:1077C0002DE9FC4791461B4A194F8846126804462A
:1077D0000221126801EB88013888536901AA984791
:1077E000060007D043462246796802F0C1FDC5B2C3
:1077F000002414E05620BDE8FC8700BF04EB4400E1
:1078000009EB40010A7900924B8819F81020701991
:1078100009A102F0ADFD2D1D641CEDB2E4B244459A
:10782000ECD331463846019A03F036FA0020E2E7FD
:10783000D44B0200B4480200313231002DE9F04F40
:107840008DB0DFF854C0DDE91F89DDE91BBADCF833
:1078500000C0DDE91D56C0EBC0076744DDF868E0F5
:10786000179C87F8A14008AFA7E86003DDF864C063
:10787000CDE906BACDE904CE169E189DCDE90036B5
:1078800013460A4601460548CDE9024502F0B0FE1E
:107890000DB0BDE8F08F0000B4480200BC4B020000
:1078A0002DE9FC471C460A9D174688468146F72B62
:1078B00026D9F720CDE900050B4601223946484676
:1078C00002F096FE002823D1F73CA4B2F73515E06C
:1078D000F72C01D3F72600E02646A01BCDE9006572
:1078E0000404240C01D0002200E002224346394661
:1078F000484602F07DFE00280AD13544002CE7D12D
:107900004346032239464846CDE9004502F070FE61
:10791000BDE8FC8708B5009313460A4601460248B5
:1079200002F066FE08BD00000C4C02002DE9FC4789
:1079300016460F4602EB8601244ADFF88C809946F2
:107940001268824600241268C91CB8F80000536906
:1079500001AA9847050002D0002001220DE0562020
:10796000BDE8FC8700EB400319F813305B1E02FAF8
:1079700003F12143401CCCB2C0B2B042F2D3009418
:107980003B4652462846D8F8041002F0F1FCC7B234
:1079900000240FE004EB440109EB410081880091D1
:1079A00043884278E8190AA102F0E2FC7F1D641CBA
:1079B000FFB2E4B2B442EDD329464046019A03F047
:1079C0006BF90020CCE70000044C0200B448020030
:1079D0003132320008B50B460092024600210248BF
:1079E000FFF75EFF08BD0000CC4B02000A460146CF
:1079F000014802F0FDBD00004C4B02002DE9F843A8
:107A0000194F15460C468046F82923D90146F8231C
:107A100001223846009502F0EBFD002821D1F83C08
:107A2000A4B2F83514E0F82C01D3F82600E026467D
:107A3000A01B0404240C009501D0002200E00222C7
:107A400033464146384602F0D3FD002809D135447B
:107A5000002CE8D12346032241463846009502F027
:107A6000C7FDBDE8F8830000F44B02000A4601465A
:107A7000014802F0BDBD0000FC4B020008B50093B8
:107A800013460A460146024802F0B2FD08BD000056
:107A9000EC4B02001CB5049CCDE9003413460A46A9
:107AA0000146024802F0A4FD1CBD0000AC4B0200E0
:107AB00005490268096841F85A2F82888A80014680
:107AC000024802F095BD0000B4480200144B0200C9
:107AD0000249096881F8610070470000B44802005B
:107AE0002DE9FF4F87B01C46DDE91A01DDE9186575
:107AF000DDE91687DDE914A99346FFF725FE002886
:107B00000DD1CDE9004ACDE90259CDF81080CDE97B
:107B10000576DDE907125B46024802F069FD0BB00D
:107B2000BDE8F08FB8480200014802F061BD0000D6
:107B3000D848020008B5009313460A460146024899
:107B400002F056FD08BD0000C8480200F0B587B03D
:107B50000DF1300EBEE8F0108DE8F81013460A461D
:107B60000146024802F044FD07B0F0BDD0480200D3
:107B70002DE9FF410D46DDE90A4780460C9E02F0E3
:107B800001FC002806D0007C38B12946404600940C
:107B900004F059FC04B0BDE8F08103968DE898002C
:107BA00013462A464146024802F022FDF2E7000051
:107BB000444B020008B59200921C0B46009201460D
:107BC0000722024802F014FD08BD0000E048020050
:107BD0002DE9F047DFF88CA48AB01E46154688468A
:107BE00004280AD008287DD128781B280FD01D280A
:107BF00008461FD001F056F81EE02978782971D187
:107C0000DAF80040002C50D04146A0474DE0B5F8CE
:107C100001700C46D21CDE1E3946A72017F0C8FCA6
:107C2000F61C02460AB0B3B239462046BDE8F0471A
:107C3000FFF77FB816F062FD040053D02978771E55
:107C40004FF001090D2973D009DC0C2915D2DFE8AA
:107C500001F014EF143114EE14ED148614F017290A
:107C600067D006DC0F2978D0112952D0132904D10E
:107C700067E1192972D01D295CD0FBA0FCF791FFA8
:107C800028788DF808908DF80900002006218DF8DD
:107C90000A008DF80C108DF80B0000900190A0895F
:107CA000052302AA042104F0A7FD0AB0BDE8F047AD
:107CB00000F0B8BCB5F8015004F096FA854200D245
:107CC0002846E08284F81890DAF8005095B1AB208D
:107CD0008DF8000004208DF80100A089ADF80200A5
:107CE000E08A00E0F7E1ADF804000623A1896A46C6
:107CF0000420A8474046FEF7DDFAE64800788007F2
:107D0000D3D4E08A0022001D81B2A089FFF738FD9C
:107D1000CBE720780228C8D132462946204617F002
:107D20003DFB69782046711A294401224988A7E061
:107D30000FE13CE14746B5F80180EA1CF61E4146DA
:107D4000A82017F035FC0246F61CB3B2414638466F
:107D5000FEF7EFFF84F85190A7E76AE15BE1207836
:107D60000C281BD011DC062801D008289DD13246F2
:107D70002946204617F0C5FA3146284600F09CFFF8
:107D8000014620461AF0BCFC8FE7142833D0242883
:107D90008BD16888A4F84C0025203AE195F8018041
:107DA000B8F1070F07D26888A085A8882086E888E0
:107DB00060860D202DE1022716E000BFE91935F895
:107DC00007904A8822868A886286C98801A81AF0A4
:107DD0007BFD01A80090638E228E49462046FEF767
:107DE000DCFF07EB080087B2B742E7D3697820468B
:107DF000711A695A43E095F8018000210227A8F121
:107E0000020A0DE035F80790EA191FFA8AF3921C6E
:107E10004946204617F066FA07EB0800494687B244
:107E2000B742EFD3204613222AE002E035E04CE0CF
:107E300009E120780E2814D0102824D028288BD1CE
:107E4000204600F07DFA218F6A1CA92017F0B0FBB4
:107E500002460837BBB2A189A068FEF761FF002186
:107E600035E101A9681C17F0D7FAA18D01AA00928B
:107E70002046638E228EFEF790FFA18D20460B22B6
:107E80001AF05EFC11E7204600F05AFABBB2218FCF
:107E90006A1C204617F026FAE1E74FF004094FF676
:107EA000FF78012704F11C0A09E0E819E95B408822
:107EB0005346804602462046FEF790FF4F44B742A5
:107EC000F3DB204641460322DAE7687804270228DC
:107ED00000D11227F01B35F800A0AD1CB61E1FFA0A
:107EE00086F8002622E000BF35F80690042F05EB47
:107EF000060021D0801C06A917F08EFAA4228DF866
:107F0000002014228DF80120A289ADF8022006A9D4
:107F1000ADF8049010220DF10600FCF7E5F9A189F7
:107F200016236A46A068FEF7FBFE3E444645DBDBAF
:107F3000204651460922A3E7418806A81AF0C4FC4E
:107F4000DCE72078182803D0262801D02C2899D1E6
:107F5000ACE0761E2078B6B2761DBFB2122815D0DE
:107F60002A288FD1218F628F6B1CAA20009717F0CF
:107F70002DFB020004D0B3B2A189A068FEF7D0FEA9
:107F80003A46292120461AF0A3FB8EE6218F628F04
:107F90006B1CA620009717F019FB020004D0B3B2A7
:107FA000A189A068FEF7BCFE3A461121EAE72078D5
:107FB0001A2812D01C281CD02E2814D03228E4D124
:107FC000204600F0BDF932462946204603F0E8F885
:107FD00000287FF461AF7E2179E0B5F803001D220F
:107FE0006087192110E0B5F803002F2260872D214A
:107FF0000AE032462946204603F0D2F840B1B5F8EF
:1080000003001D2260871B2120461AF088FB4CE6E6
:108010002120207049E620781E2847D0202845D00E
:10802000222802D03028B0D140E0204600F088F964
:10803000D1E720781628A8D1BBB26A1C00212046BF
:1080400017F050F932E029790A292BD12078082835
:1080500030D021DC022829D0042827D0062821D1BD
:1080600028E00000D80000204154542048616E648C
:108070006C65722C20756E68616E646C656420722C
:108080006573706F6E736520747970652030782524
:1080900030327800D40000200A2807D00C2805D000
:1080A00014280CD0204600F0ACFAFEE5204600F083
:1080B00047F9D4E6E18D2046FEF7BAFCF6E7204604
:1080C00000F03EF9A08D218E8842F2D10A2120468F
:1080D000FEF750FEE9E50AB0BDE8F08710B50446AA
:1080E000084616F045FB18B1017819B1952010BD6E
:1080F000562010BD1F218460017000F093FA00200B
:1081000010BD70B505461446084616F031FB18B18F
:10811000017819B1952070BD562070BD85606188C9
:10812000A288914203D10021FEF724FE07E0491CFA
:108130008185A188C1850921017000F073FA0020B2
:1081400070BD2DE9F04107461D4616460846DDF88C
:10815000188016F00DFB040004D0207820B1952083
:10816000BDE8F0815620FBE7A760A685E5850120E4
:1081700084F85000002565831022414604F11C005C
:10818000FCF7B2F8E5860720207000F04BFA0020DB
:10819000E6E72DE9F04107461D4616460846DDF89C
:1081A000188016F0E5FA040004D0207820B195205C
:1081B000BDE8F0815620FBE7A760A685E585012094
:1081C00084F85000A4F81A80414604F11C001AF00B
:1081D0007BFB0020E0860720207000F023FA0020BF
:1081E000E6E770B506461C461546084616F0C0FA86
:1081F00018B1017819B1952070BD562070BD866008
:108200008585C485002180F85010C1860521017044
:1082100000F008FA002070BD10B50446084616F0BC
:10822000A7FA18B1017819B1952010BD562010BDDC
:108230000121846081854FF6FF72C28501700021A3
:10824000418300F0EFF9002010BD70B505461646D9
:10825000084616F08DFA040003D0207818B1952056
:1082600070BD562070BD0120A560A0854FF6FF703F
:10827000E085002060831022314604F11C00FCF7E9
:1082800033F80320207000F0CDF9002070BD70B5E8
:1082900005461446084616F06BFA18B1017819B174
:1082A000952070BD562070BD0121856081854FF6F7
:1082B000FF71C18503210170448321461C301AF0EF
:1082C00003FB00F0AFF9002070BD10B5044608466E
:1082D00016F04EFA18B1017819B1952010BD56204C
:1082E00010BD1D218460017000F09CF9002010BDBC
:1082F00070B506461C461546084616F039FA18B100
:10830000017819B1952070BD562070BD86608585B5
:10831000C4850B21017000F085F9002070BD00B507
:108320000A4600F0BFFC10B1017E012903D01720DE
:108330001080952000BDC08A1080002000BD000084
:1083400010B500210170044681890448FCF729FC1E
:1083500004F16000BDE81040FEF730BA8C4802001E
:1083600070B5042817D11078052810D1B2F8035041
:10837000284600F097FC040009D01F2100F041F9C5
:108380000549002041F825002046FEF74FF9BDE8D9
:10839000704000F047B970BD086C0020064910B568
:1083A00004484860084601F0C9FEBDE81040034893
:1083B000FDF7D4B961830000DC000020D17B000010
:1083C00010B516F09BF9002802D0007808B1002003
:1083D00010BD012010BD70B504460D46104600F0DA
:1083E00061FC002807D0656023812146BDE870400C
:1083F000001DFEF7B5B870BD2DE9F0410646DDE978
:1084000006781C461546084616F0B2F920B10178E8
:1084100021B19520BDE8F0815620FBE786600587F5
:10842000878744873121C0F84080017000F0FAF856
:108430000020EFE770B505461446084616F098F997
:1084400018B1017819B1952070BD562070BD8560B6
:1084500004872721017000F0E5F8002070BD00239B
:10846000AFF3008070B506461C461546084616F068
:108470007FF918B1017819B1952070BD562070BDF3
:108480008660058744872921017000F0CBF8002021
:1084900070BD0023AFF3008070B506461C4615463C
:1084A000084616F065F918B1017819B1952070BD2C
:1084B000562070BD8660058744871121017000F049
:1084C000B1F8002070BD70B506461D46144608463A
:1084D00016F04EF918B1017819B1952070BD5620EB
:1084E00070BD8660A0F8444015218564017000F0DD
:1084F00099F8002070BD70B505461446084616F080
:1085000037F918B1017819B1952070BD562070BDAA
:1085100085600487002141870F21017000F082F8F7
:10852000002070BD2DE9F04107461D46164608465D
:10853000DDF8188016F01CF9040004D0207820B172
:108540009520BDE8F0815620FBE7A760A685E5856C
:1085500026866586002060831022414604F11C00B7
:10856000FBF7C2FE1320207000F05CF80020E8E763
:108570002DE9F04107461D4616460846DDF81880ED
:1085800016F0F6F8040004D0207820B19520BDE85C
:10859000F0815620FBE7A760A685E58526866586DF
:1085A000A4F81A80414604F11C001AF08DF913203A
:1085B000207000F037F80020E9E70000014908606A
:1085C00070470000D80000202DE9F04106461C4607
:1085D00015460846069F16F0CBF820B1017821B168
:1085E0009520BDE8F0815620FBE7866005878487EB
:1085F000002141871B210764017000F013F800205F
:10860000EFE770B5044600780D46002808D02046F4
:10861000FFF796FE29462046BDE87040FEF7AABB4C
:1086200070BD00002DE9F04F002689B04FF01E0903
:108630004FF0040A4FF0020B37464FF00808CD48C0
:1086400050F82640002C6ED0A089FDF781F840B18B
:108650002278217EC8A0FCF7A4FA207E012862D1EE
:1086600005E0A08909B0BDE8F04FFDF774B894F8B3
:10867000510040B184F85170A0898DF8089000979E
:108680000123019789E02078172801D02B2818D1E1
:10869000204615F0EEFCA18FC01E884211DA20465C
:1086A00015F0E7FC0246A18FC1A0FCF77AFA20463C
:1086B000FFF746FE09B02046BDE8F04F0D21FEF75A
:1086C00059BB606D04F03AFA05462178C3A0FCF767
:1086D00068FA2078362826D2DFE800F09E1B9E2616
:1086E0009E469E499E519E649E709E749E769E7884
:1086F0009EA39EB69EB89EBC9EBE9EC19EC39ECBB0
:108700009EED9ED39EDD9EE59EFE9EFC9EBA9EFB48
:108710009EFA84F800B0E08D0090A38DA2894FF4FA
:108720002051102047E077E084F800A0608B4FF4E0
:10873000205530B1ADF81C00E18D07AA8DE8060880
:1087400009E003A904F11C0016F066FEE08D10227A
:1087500003A98DE80700A38DA28929460620FDF70D
:108760002DF909B0BDE8F08F0620207001E084F8F3
:10877000008009B02046BDE8F04F16F084BE84F8B2
:108780000080A089A18DE28D8DF808A0ADF80910B8
:10879000ADF80B2000970523019702AA042104F0ED
:1087A0002BF8DEE70C202070E08D0090A38DA289CD
:1087B00042F602010820FDF744FBD2E70E202070AC
:1087C000228E61E010205DE0122065E01420207010
:1087D000618B204639B1C28D0092838DA289082019
:1087E000FDF72FFB18E000F11C028589818DE08DDB
:1087F0008DF80880ADF80910ADF80B000DF10D01F2
:10880000104616F009FE0097152302AA04212846F7
:10881000CDF8047003F0F0FF761C082EFFF40FAFC4
:108820009FE716202070A089B4F844100E23A26C94
:108830008DF808304FF6FF7303EA4101CDE90021BE
:10884000012302AA0421E5E718202DE01A2044E0C4
:10885000322042E01C2040E084F8009046E02020D6
:1088600000E02220207009B02046BDE8F04F16F04D
:1088700005BE2420207009B02046BDE8F04F16F058
:1088800042BE28202070228FA18909B00A20BDE8AD
:10889000F04FFDF7EBBA2A20207009B02046BDE862
:1088A000F04F16F01BBE2C20207009B02046BDE80A
:1088B000F04F16F033BE2620207004F14E000090D9
:1088C000B4F84C20A18902231220FDF751FD48E79E
:1088D00026E011E008E0FFE72E20207009B02046D6
:1088E000BDE8F04F16F0DFBD3020207009B0204603
:1088F000BDE8F04F16F0D2BD17F0CCFA00288FD0AB
:1089000034202070A86D216C01AB0091394A15C349
:10891000A38F228FD22105F1480017F0C5FA20E776
:1089200036202070A96DB4F80C90228FB4F83C80EA
:10893000D223266C8DF81030ADF81120059104F18A
:1089400058000DF1140A06A916F075FD0C20CDE9AA
:1089500002A0CDE90068032304AA0421484603F0DD
:1089600093FF27702046FFF7EBFCA86D401CA8651D
:10897000F7E60000086C00202D2068616E646C65CD
:108980005F7065726970686572616C5F6C69737441
:108990002C206D74752073746174652025752C20EE
:1089A000636C69656E74207374617465202575004D
:1089B000676174745F636C69656E745F72756E3A3B
:1089C0002076616C7565206C656E202575203E20D3
:1089D0004D5455202575202D20330A00676174748D
:1089E0005F636C69656E745F73746174652025756F
:1089F00000000000A56200002DE9F04707461D4673
:108A0000164689460846DDF8208015F077FE0446B4
:108A1000007850B9484617F0FFFF014660650AA08C
:108A2000FCF7BFF8606D002802DA9520BDE8F087FA
:108A3000A7602687A5873320C4F840802070FFF701
:108A4000F1FD0020F2E700006C655F646576696304
:108A5000655F6B6579206973203A307825780A0064
:108A600070B50A4E0546002456F82400A84207D1E6
:108A7000A98907A0FCF795F87F212846FFF7C1FDDB
:108A8000641CA4B2082CEFD370BD0000086C002059
:108A90004741545420636C69656E742074696D6538
:108AA0006F75742068616E646C652C2068616E64FB
:108AB0006C65203078253032780000002DE9F041D7
:108AC00006461C4615460846069F15F051FE20B185
:108AD000017821B19520BDE8F0815620FBE7866042
:108AE00005878487002141872B2107640170FFF7E8
:108AF00099FD0020EFE770B506461D46144608466E
:108B000015F036FE18B1017819B1952070BD5620C8
:108B100070BDE90704D0A179C90601D4982070BDC1
:108B2000A90704D5A179890601D4992070BD866072
:108B300061888185A188C185A0F84E5023210170EC
:108B4000FFF770FD002070BD1CB5049CCDE900341A
:108B5000002300F001F81CBD2DE9F0410646DDE9D7
:108B600006781C461546084615F002FE20B101782D
:108B700021B19520BDE8F0815620FBE7866005878E
:108B8000878744872D21C0F840800170FFF74AFD98
:108B90000020EFE71CB5049CCDE90034002300F071
:108BA00001F81CBD2DE9F0410646DDE906781C46BA
:108BB0001546084615F0DCFD20B1017821B195205D
:108BC000BDE8F0815620FBE78660058787874487EC
:108BD0001921C0F840800170FFF724FD0020EFE765
:108BE0002DE9F04106461C4615460846069F15F03D
:108BF000BFFD20B1017821B19520BDE8F08156205C
:108C0000FBE7866005878487172107640170FFF7FB
:108C100009FD0020F1E7F8B51E4615460F4615F090
:108C20006DFD040003D0207818B19520F8BD5620C2
:108C3000F8BD204615F01DFAC01EA84201DA9720A3
:108C4000F8BD0096A1892B463A465220FDF790FBCD
:108C5000C0B2F8BDF0B5002423460125C65C002251
:108C600005FA02F73E4207D08C4203D102EBC30063
:108C7000C0B2F0BD641CA4B2521CD2B2082AEFD319
:108C80005B1CDBB2052BE9D3FF20F0BD10B580B231
:108C900015F03AFA19F04AFB0028FBD1BDE8104064
:108CA00019F036BB082803D2024951F8200070475A
:108CB00000207047086C00204278891A0844B0F8F8
:108CC000030070472DE9FC41164C18271E46D4F8C6
:108CD00008C0BCF1000F11D04978D9B12178002526
:108CE00079B1FCF7D9FC237862882570658002B0E1
:108CF00039463046BDE8F04116F060BC032300223F
:108D0000F5E7002300950195B0F806010222194607
:108D1000E04701E0FCF7C0FC192030700120BDE8FD
:108D2000FC810000AC0000202DE9FF4F87B01D46FC
:108D3000DDE914738946824600264FF0060B0124B4
:108D4000B0463A4629463248FBF728FFBD4204D8D0
:108D50001DB1DAF82401009046E0012351E0684695
:108D6000FCF750FFBDF8080008B1A8423CD3B84258
:108D70003DD8CEB158B14FF420516846FCF78BFF77
:108D800028B942F601016846FCF785FF60B141460B
:108D900020A0FBF703FF29F80480A41CA4B20999C2
:108DA0000026201D884222D8BDF808005FEA00088E
:108DB0001AD068461599FCF76EFFA8B1BDF81020CF
:108DC0001698824210D105991798FBF7C6FA58B940
:108DD000BDF8081016A0FBF7E1FEBDF8081029F851
:108DE0000410A41CA4B2012600980028B7D1012CBD
:108DF00006D0072189F8001020460BB0BDE8F08F9F
:108E00000A232A465946484616F0D8FBF5E70000E3
:108E1000E0460200456E64206F662067726F7570D1
:108E20002C2068616E646C652030782530347800C1
:108E3000426567696E206F662067726F75702C20BF
:108E400068616E646C6520307825303478000000ED
:108E50002DE9F04F87B09346109F884681461E4605
:108E60004FF0040A012400253A46194628A0FBF7D2
:108E700095FEBE4204D81EB1D9F82401009033E01B
:108E800001233EE06846FCF7BDFEBDF8080070B364
:108E9000B8422CD8B04227D3BDF80610880501D5BA
:108EA000102000E00220012C02D9A84221D109E0C3
:108EB00008D10546880501D5022100E0012188F886
:108EC000011002246019801C584510D8BDF8081004
:108ED00028F80410A41CA4B208EB04002A46039945
:108EE000FBF702FA601984B200980028CAD1012C5D
:108EF00006D0052088F80000204607B0BDE8F08FB6
:108F00000A2332465146404616F058FBF5E700006A
:108F10004154545F46494E445F494E464F524D417D
:108F200054494F4E5F524551554553543A2066724D
:108F30006F6D202530345820746F20253034580050
:108F40002DE9F04F2C4C8346B1F80150B1F803A045
:108F5000A06889B0984691460E46162758B12A4611
:108F600002A95846FCF741FD38B1BDF80E000107D3
:108F700001D5C00503D403231DE001231BE002A992
:108F80005846FDF7C3F908B1034614E0A9F10500FE
:108F9000711D80B2CDE90010D4F808C0BBF80601FD
:108FA000534601222946E04710F0FF0319D0072B52
:108FB00009D00D2B07D02A463946404616F0FEFA56
:108FC00009B0BDE8F08F0D2B02D0072B06D008E0CA
:108FD00020780D2805D02370658002E020780028D5
:108FE000F9D04A4631464046FBF77EF9172188F80A
:108FF00000104846E4E70000AC0000202DE9F043F3
:1090000087B016460E9D0C46074699464FF00C0851
:109010002A46194625A0FBF7C1FD4A4601A9384654
:10902000FCF7E3FC28B1BDF80A00800703D4022353
:1090300007E0012305E001A93846FDF767F90300C1
:1090400007D04A464146204616F0B8FA07B0BDE8B8
:10905000F083B7F8061101A8FDF742F9BDF8140036
:10906000A0F57F41FF3902D10020ADF8140080B295
:10907000A84201D20723E4E7401C401BB04203DDB5
:109080007019401EADF81400B7F806010090BDF845
:109090001400621C401B83B2294601A8FCF736FB72
:1090A000401C0D2180B22170D0E700004154545F74
:1090B000524541445F424C4F425F524551554553E2
:1090C000543A2068616E646C6520253034782C2019
:1090D0006F66667365742025750000002DE9FF4FEB
:1090E00089B00024DDF858901020CDE906041E4612
:1090F0008A460125A0460894A3464A46314643487D
:109100000B9BFBF74BFD4E4513D896B1DDE91707D6
:10911000022810D0384602F021F840B1B7F80C0010
:109120004FF42057B84208D0791C884205D010234C
:1091300066E0012364E03888F2E70998D0F824015A
:10914000009050E06846FCF75DFDBDF8080008B1EE
:10915000B04248D3484549D8B8F1000F23D050B1A8
:1091600039466846FCF797FD28B942F60101684682
:10917000FCF791FDB8B108992AF80510AD1CA8B20A
:109180002AF800B0801C85B20AEB0500221F07995F
:10919000FBF7AAF82819001F85B20B9829194FF080
:1091A0000008814222D8BDF808005FEA000B1AD0FF
:1091B000DDE917216846FCF749FDA0B1BDF81000B4
:1091C000001D80B2012D02D9A04211D104E003D1CB
:1091D00004468AF801000225BDF8080008900598A9
:1091E0004FF00108079000980028ABD1012D06D060
:1091F00011208AF8000028460DB0BDE8F08F0A2340
:1092000032465046069916F0D9F9F5E7284702008C
:109210002DE9FF4F87B08846149F81464FF0000A22
:109220001D464FF0080B012456463A4619463FA00A
:10923000FBF7B4FCBD4204D81DB1D9F8240101905C
:109240005CE0012366E001A8FCF7DCFCBDF80C0043
:10925000E8B3A84252D3B84253D8DDE9152101A89A
:10926000FCF7F4FCA0B3BDF80A00800703D47EBB72
:10927000BDF80C6042E001A94846FDF747F803003D
:1092800002D0012C3FD845E0B9F8061101A8FDF73E
:1092900027F8BDF81400A0F57F41FF392ED0801CBF
:1092A00080B2012C02D982452DD104E003D182463F
:1092B00088F801000224099804EB0A0181420AD9C6
:1092C000022C20D8001FADF81400801C01E018E02B
:1092D00014E088F80100BDF80C1028F80410B9F863
:1092E0000601A41C0090A4B2BDF8143008EB0402DF
:1092F000002101A8FCF70AFA204484B20198002852
:10930000A1D1012C08D9092188F8001020460BB002
:10931000BDE8F08F2A4602E036B1022332465946B4
:10932000404616F04BF9F2E70A23F3E74154545F45
:10933000524541445F42595F545950455F5245512F
:10934000554553543A2066726F6D202530345820AD
:10935000746F20253034582C20747970653A2000C1
:109360002DE9FF4F87B0884683461F464FF00E0910
:109370000124194628A0DDF850A0FBF70FFC0025BA
:1093800043E000BF3AF815605EB1324601A9584685
:10939000FCF72BFB28B1BDF80A00800703D4022399
:1093A00007E0012305E001A95846FCF7AFFF0300E1
:1093B00007D032464946404616F000F90BB0BDE8EA
:1093C000F08FBBF8061101A8FCF78AFFBDF8140066
:1093D000A0F57F41FF3902D10020ADF8140080B222
:1093E00001190998814202D9401EADF81400BBF85A
:1093F00006010090BDF8143008EB0402002101A81A
:10940000FCF784F9204484B26D1CBD42BADB0F2105
:1094100088F800102046D1E74154545F524541443A
:109420005F4D554C5449504C455F5245515545533D
:10943000543A206E756D2068616E646C65732025EA
:10944000750000002DE9F04387B015460C4606462E
:1094500099464FF00A081A4601A9FCF7C6FA0746D2
:1094600049461EA0FBF79AFB2FB1BDF80A00800702
:1094700003D4022307E0012305E001A93046FCF7ED
:1094800045FF030007D04A464146204616F096F8AD
:1094900007B0BDE8F083B6F8061101A8FCF720FF7D
:1094A000BDF814004FF6FF71884201D10846EFE77E
:1094B000401CA84202D96D1EADF81450B6F8060142
:1094C0000090BDF81430621C002101A8FCF71EF9C1
:1094D000401C0B2180B22170DAE700004154545F38
:1094E000524541445F524551554553543A206861B5
:1094F0006E646C6520253034780000002DE9F04161
:10950000154F8046B1F80150B86888B016460C4631
:1095100000281ED02A4602A94046FCF766FA002819
:1095200017D0BDF80E00C10513D5400711D502A90B
:109530004046FCF7EBFE00280BD1F61EE41CB0B24F
:10954000CDE900400023BC68B8F806011A46294658
:10955000A04708B0BDE8F081AC0000202DE9F0473D
:10956000B1F8015088B090460C461E4681464FF037
:10957000120A2A4602A9FCF738FA50B1164FB86809
:1095800028B1BDF80E00010701D5C00503D403239F
:1095900016E0012314E002A94846FCF7B7FE0300D9
:1095A0000ED1A8F1030080B2E41CCDE90040BC68F4
:1095B000B9F806011A462946A04710F0FF0307D064
:1095C0002A465146304615F0F9FF08B0BDE8F0874D
:1095D000132030700120F8E7AC000020AFF30080CA
:1095E0002DE9F0411E4F002600F1130497F82410D6
:1095F0003546491C87F82410017CB9B1012923D0D4
:10960000032917D0042925D040F2A11215A100206A
:10961000FCF738F80E202070E81C607097F82400E2
:10962000A070A4F80360681DBDE8F081806811494E
:10963000193804E080681049A0F54030293801EB62
:10964000C00046884578E5E780680C49A0F5803081
:109650001338F4E780680A49A0F58020801EEEE701
:1096600070720020626C655F686369635F6D736729
:109670002E63000050530200F0530200F854020021
:10968000D05502002DE9F0411F4F054600F11204AC
:1096900097F824000026401C87F82400287CC0B1DD
:1096A000012820D0032817D0042824D040F25532B6
:1096B00016A10020FBF7E6FF0F2020700420607049
:1096C000287EA07097F82400E070A6800620BDE8F0
:1096D000F0811249A86801E01149A86801EBC000B7
:1096E00030F8C66CE8E70F49A86801EBC000A0F5A8
:1096F0000020963806E00C49A86801EBC000A0F5F0
:1097000000100E380688D7E770720020626C655F23
:10971000686369635F6D73672E63000050530200D6
:10972000F0530200F8540200D05502001A210175CE
:10973000012141750320704710B5837E4FF6FF74F9
:1097400004EA0333048B016AC4F30B04828B2343C2
:109750008B82808BC882101D10BD05228275042269
:10976000C275428BA0F81920017FC1760620704790
:1097700008230178002200F05DB8000010B50488CD
:10978000A0F11801082C04D2012202EB0422CA60C5
:1097900013E0084613F060FE062301220521094864
:1097A00013F046FF0849B1F8382191F83A1142EA1E
:1097B00081210180022181708480BDE8104014F075
:1097C000A9B800002800010070720020FF21C170BC
:1097D0000021817114F09EB842F23401A0F85310B8
:1097E0000021017181717F21C17114F093B842F29F
:1097F0005001A0F853107F228379C11D5A5414F0F0
:1098000089B8FF21417000218170FFF7DFBF082375
:109810000188042200F00EB842F21E01A0F8531095
:109820000121C1700021017181717F21C17114F08A
:1098300071B8000070B5044618381546994207D231
:1098400042EA0121C1602046BDE8704014F062B8D0
:1098500013F002FE06484222B0F8381190F83A019F
:1098600041EA802081B22846BDE8704000F00EBB7E
:1098700070720020082282750422C275428BA0F803
:109880001920017FC17606207047302181750321A0
:10989000C17500F11901408B08800520704700F068
:1098A000D0BB00F0CDBBF0B58FB0044610F8011B63
:1098B0008DF8001001788DF8011041788DF80210B4
:1098C00050F8021FCDF803108188ADF80710002270
:1098D0008579C01D114601276B4607FA01F62E4215
:1098E00005D002EB02161E44521C7172D2B2491C02
:1098F000C9B20229F1D9002515E005EB051119447B
:1099000006884E8146888E818688CE81C6880E82E2
:1099100006894E8246898E828689CE82C68910301B
:109920006D1C0E83EDB29542E7D3032005E002EBF8
:1099300002111944521C4872D2B2032AF7D33C22B6
:1099400069462046FAF7D0FC204613F0E3FF0FB03B
:10995000F0BD0000084A00F1130113785B1C13707E
:109960000E23C3740423037512784275028BC282DE
:10997000807E487106207047947200200A4A00F1E8
:10998000130113785B1C13700E23C3740623037535
:1099900012784275028BC282827E0276B0F81B007A
:1099A000C88008207047000094720020084A00F127
:1099B000130113785B1C13700F23C3740423037506
:1099C000837E437512788275008B888006207047ED
:1099D0009472002070B500230B4D0446582298184D
:1099E00000EBD070411001EB410005EB80000688D0
:1099F000A64208D002D9A1F1010201E001F1010360
:109A00009342ECDD002070BD244F0200B0F803103B
:109A10008180B0F80510C18013F07CBF30B40178AC
:109A20000BE000BF00EB810232F8034D20F811403B
:109A3000538800EB4102491E13820029F2DC30BC3E
:109A400013F068BF102181750121C1750320704793
:109A500010B500220F49052013F00EFC0E4C2068B3
:109A600008B9A06800B1012040F237520BA1FBF702
:109A700009FE0020E0620A2084F8240000F016F8B5
:109A800005481830FCF744FFBDE8104006490420A3
:109A900013F070BF144F020070720020626C655F9B
:109AA000686369632E63000049A000000348002139
:109AB000418001704171C1607047000090720020C8
:109AC0002DE9F0418CB000F118063E2100F8161F78
:109AD000451C041D022096F80180287000272FE005
